{
  "contractName": "PetitionList",
  "abi": [
    {
      "constant": true,
      "inputs": [
        {
          "name": "",
          "type": "uint256"
        }
      ],
      "name": "petitions",
      "outputs": [
        {
          "name": "id",
          "type": "uint256"
        },
        {
          "name": "voteCount",
          "type": "uint256"
        },
        {
          "name": "title",
          "type": "string"
        },
        {
          "name": "description",
          "type": "string"
        }
      ],
      "payable": false,
      "stateMutability": "view",
      "type": "function"
    },
    {
      "constant": true,
      "inputs": [],
      "name": "petitionCount",
      "outputs": [
        {
          "name": "",
          "type": "uint256"
        }
      ],
      "payable": false,
      "stateMutability": "view",
      "type": "function"
    },
    {
      "anonymous": false,
      "inputs": [
        {
          "indexed": false,
          "name": "id",
          "type": "uint256"
        },
        {
          "indexed": false,
          "name": "title",
          "type": "string"
        },
        {
          "indexed": false,
          "name": "description",
          "type": "string"
        }
      ],
      "name": "PetitionCreated",
      "type": "event"
    },
    {
      "anonymous": false,
      "inputs": [
        {
          "indexed": false,
          "name": "id",
          "type": "uint256"
        },
        {
          "indexed": false,
          "name": "firstName",
          "type": "string"
        },
        {
          "indexed": false,
          "name": "lastName",
          "type": "string"
        },
        {
          "indexed": false,
          "name": "email",
          "type": "string"
        }
      ],
      "name": "VoteCreated",
      "type": "event"
    },
    {
      "constant": false,
      "inputs": [
        {
          "name": "_title",
          "type": "string"
        },
        {
          "name": "_description",
          "type": "string"
        }
      ],
      "name": "createPetition",
      "outputs": [],
      "payable": false,
      "stateMutability": "nonpayable",
      "type": "function"
    },
    {
      "constant": false,
      "inputs": [
        {
          "name": "_id",
          "type": "uint256"
        },
        {
          "name": "_firstName",
          "type": "string"
        },
        {
          "name": "_lastName",
          "type": "string"
        },
        {
          "name": "_email",
          "type": "string"
        }
      ],
      "name": "CreateVote",
      "outputs": [],
      "payable": false,
      "stateMutability": "nonpayable",
      "type": "function"
    }
  ],
  "bytecode": "0x60806040526000805534801561001457600080fd5b50610d62806100246000396000f3fe608060405260043610610062576000357c0100000000000000000000000000000000000000000000000000000000900463ffffffff1680633ad50ded1461006757806341a51d131461019557806361ab1f09146102f4578063b5023cc81461031f575b600080fd5b34801561007357600080fd5b506100a06004803603602081101561008a57600080fd5b810190808035906020019092919050505061051f565b604051808581526020018481526020018060200180602001838103835285818151815260200191508051906020019080838360005b838110156100f05780820151818401526020810190506100d5565b50505050905090810190601f16801561011d5780820380516001836020036101000a031916815260200191505b50838103825284818151815260200191508051906020019080838360005b8381101561015657808201518184015260208101905061013b565b50505050905090810190601f1680156101835780820380516001836020036101000a031916815260200191505b50965050505050505060405180910390f35b3480156101a157600080fd5b506102f2600480360360408110156101b857600080fd5b81019080803590602001906401000000008111156101d557600080fd5b8201836020820111156101e757600080fd5b8035906020019184600183028401116401000000008311171561020957600080fd5b91908080601f016020809104026020016040519081016040528093929190818152602001838380828437600081840152601f19601f8201169050808301925050505050505091929192908035906020019064010000000081111561026c57600080fd5b82018360208201111561027e57600080fd5b803590602001918460018302840111640100000000831117156102a057600080fd5b91908080601f016020809104026020016040519081016040528093929190818152602001838380828437600081840152601f19601f82011690508083019250505050505050919291929050505061067f565b005b34801561030057600080fd5b50610309610984565b6040518082815260200191505060405180910390f35b34801561032b57600080fd5b5061051d6004803603608081101561034257600080fd5b81019080803590602001909291908035906020019064010000000081111561036957600080fd5b82018360208201111561037b57600080fd5b8035906020019184600183028401116401000000008311171561039d57600080fd5b91908080601f016020809104026020016040519081016040528093929190818152602001838380828437600081840152601f19601f8201169050808301925050505050505091929192908035906020019064010000000081111561040057600080fd5b82018360208201111561041257600080fd5b8035906020019184600183028401116401000000008311171561043457600080fd5b91908080601f016020809104026020016040519081016040528093929190818152602001838380828437600081840152601f19601f8201169050808301925050505050505091929192908035906020019064010000000081111561049757600080fd5b8201836020820111156104a957600080fd5b803590602001918460018302840111640100000000831117156104cb57600080fd5b91908080601f016020809104026020016040519081016040528093929190818152602001838380828437600081840152601f19601f82011690508083019250505050505050919291929050505061098a565b005b6001602052806000526040600020600091509050806000015490806001015490806002018054600181600116156101000203166002900480601f0160208091040260200160405190810160405280929190818152602001828054600181600116156101000203166002900480156105d75780601f106105ac576101008083540402835291602001916105d7565b820191906000526020600020905b8154815290600101906020018083116105ba57829003601f168201915b505050505090806003018054600181600116156101000203166002900480601f0160208091040260200160405190810160405280929190818152602001828054600181600116156101000203166002900480156106755780601f1061064a57610100808354040283529160200191610675565b820191906000526020600020905b81548152906001019060200180831161065857829003601f168201915b5050505050905084565b600080815480929190600101919050555081600160008054815260200190815260200160002060020190805190602001906106bb929190610c11565b5080600160008054815260200190815260200160002060030190805190602001906106e7929190610c11565b5060018060008054815260200190815260200160002060010181905550600160008054815260200190815260200160002060040160806040519081016040528060005481526020016040805190810160405280600581526020017f666972737400000000000000000000000000000000000000000000000000000081525081526020016040805190810160405280600481526020017f6c6173740000000000000000000000000000000000000000000000000000000081525081526020016040805190810160405280601381526020017f66697273746c61737440676d61696c2e636f6d000000000000000000000000008152508152509080600181540180825580915050906001820390600052602060002090600402016000909192909190915060008201518160000155602082015181600101908051906020019061082f929190610c91565b50604082015181600201908051906020019061084c929190610c91565b506060820151816003019080519060200190610869929190610c91565b505050507f38d2c839334e6a5d422a19e5a31bbf1d9e9cd429efd20bbfddbef759f841a76a6000548383604051808481526020018060200180602001838103835285818151815260200191508051906020019080838360005b838110156108dd5780820151818401526020810190506108c2565b50505050905090810190601f16801561090a5780820380516001836020036101000a031916815260200191505b50838103825284818151815260200191508051906020019080838360005b83811015610943578082015181840152602081019050610928565b50505050905090810190601f1680156109705780820380516001836020036101000a031916815260200191505b509550505050505060405180910390a15050565b60005481565b600160008581526020019081526020016000206001016000815480929190600101919050555060016000858152602001908152602001600020600401608060405190810160405280600160008881526020019081526020016000206001015481526020018581526020018481526020018381525090806001815401808255809150509060018203906000526020600020906004020160009091929091909150600082015181600001556020820151816001019080519060200190610a4f929190610c91565b506040820151816002019080519060200190610a6c929190610c91565b506060820151816003019080519060200190610a89929190610c91565b505050507fe33023e944db00210b9bcd79a869ad15ab8b6c9a54f3e61d1484f922e79c60178484848460405180858152602001806020018060200180602001848103845287818151815260200191508051906020019080838360005b83811015610b00578082015181840152602081019050610ae5565b50505050905090810190601f168015610b2d5780820380516001836020036101000a031916815260200191505b50848103835286818151815260200191508051906020019080838360005b83811015610b66578082015181840152602081019050610b4b565b50505050905090810190601f168015610b935780820380516001836020036101000a031916815260200191505b50848103825285818151815260200191508051906020019080838360005b83811015610bcc578082015181840152602081019050610bb1565b50505050905090810190601f168015610bf95780820380516001836020036101000a031916815260200191505b5097505050505050505060405180910390a150505050565b828054600181600116156101000203166002900490600052602060002090601f016020900481019282601f10610c5257805160ff1916838001178555610c80565b82800160010185558215610c80579182015b82811115610c7f578251825591602001919060010190610c64565b5b509050610c8d9190610d11565b5090565b828054600181600116156101000203166002900490600052602060002090601f016020900481019282601f10610cd257805160ff1916838001178555610d00565b82800160010185558215610d00579182015b82811115610cff578251825591602001919060010190610ce4565b5b509050610d0d9190610d11565b5090565b610d3391905b80821115610d2f576000816000905550600101610d17565b5090565b9056fea165627a7a72305820f92606941d25683de300040ffd01a5b55d88c01734fb146cdf4ec366ffc6ed520029",
  "source": "pragma solidity ^0.5.0;\n\ncontract PetitionList {\n  uint public petitionCount = 0;\n  mapping(uint => Petition) public petitions;\n\n  struct Petition {\n    uint id;\n    uint voteCount;\n    string title;\n    string description;\n    Vote[] votes;\n    // VoteList voteList;\n  }\n\n  // struct VoteList {\n  //   uint id;\n  //   mapping(uint => Vote) votes;\n  // }\n\n  struct Vote {\n    uint id;\n    string firstName;\n    string lastName;\n    string email;\n  }\n\n  event PetitionCreated(\n    uint id,\n    string title,\n    string description\n  );\n\n  event VoteCreated(\n    uint id,\n    string firstName,\n    string lastName,\n    string email\n  );\n\n  function createPetition(string memory _title, string memory _description) public {\n    petitionCount ++;\n    petitions[petitionCount].title = _title;\n    petitions[petitionCount].description = _description;\n    petitions[petitionCount].voteCount = 1;\n    petitions[petitionCount].votes.push(Vote(petitionCount, \"first\", \"last\", \"firstlast@gmail.com\"));\n    emit PetitionCreated(petitionCount, _title, _description);\n  }\n\n  function CreateVote(uint _id, string memory _firstName, string memory _lastName, string memory _email) public {\n    petitions[_id].voteCount ++;\n    petitions[_id].votes.push(Vote(petitions[_id].voteCount, _firstName, _lastName, _email));\n    emit VoteCreated(_id, _firstName, _lastName, _email);\n  }\n}",
  "sourcePath": "/Users/dylanskelly/Desktop/block-change/backend/contracts/PetitionList.sol",
  "compiler": {
    "name": "solc",
    "version": "0.5.0+commit.1d4f565a.Emscripten.clang"
  },
  "schemaVersion": "3.0.1",
  "updatedAt": "2020-05-02T22:31:39.243Z",
  "devdoc": {
    "methods": {}
  },
  "userdoc": {
    "methods": {}
  }
}