{
  "contractName": "PetitionList",
  "abi": [
    {
      "constant": true,
      "inputs": [
        {
          "name": "",
          "type": "uint256"
        }
      ],
      "name": "petitions",
      "outputs": [
        {
          "name": "id",
          "type": "uint256"
        },
        {
          "name": "voteCount",
          "type": "uint256"
        },
        {
          "name": "title",
          "type": "string"
        },
        {
          "name": "description",
          "type": "string"
        }
      ],
      "payable": false,
      "stateMutability": "view",
      "type": "function",
      "signature": "0x3ad50ded"
    },
    {
      "constant": true,
      "inputs": [],
      "name": "petitionCount",
      "outputs": [
        {
          "name": "",
          "type": "uint256"
        }
      ],
      "payable": false,
      "stateMutability": "view",
      "type": "function",
      "signature": "0x61ab1f09"
    },
    {
      "anonymous": false,
      "inputs": [
        {
          "indexed": false,
          "name": "id",
          "type": "uint256"
        },
        {
          "indexed": false,
          "name": "title",
          "type": "string"
        },
        {
          "indexed": false,
          "name": "description",
          "type": "string"
        },
        {
          "indexed": false,
          "name": "creatorFirstName",
          "type": "string"
        },
        {
          "indexed": false,
          "name": "creatorLastName",
          "type": "string"
        },
        {
          "indexed": false,
          "name": "creatorEmail",
          "type": "string"
        }
      ],
      "name": "PetitionCreated",
      "type": "event",
      "signature": "0x492297c097afce05595d715e035fab336852484c58ef49477673ae2a8a3ea14f"
    },
    {
      "anonymous": false,
      "inputs": [
        {
          "indexed": false,
          "name": "id",
          "type": "uint256"
        },
        {
          "indexed": false,
          "name": "firstName",
          "type": "string"
        },
        {
          "indexed": false,
          "name": "lastName",
          "type": "string"
        },
        {
          "indexed": false,
          "name": "email",
          "type": "string"
        }
      ],
      "name": "VoteCreated",
      "type": "event",
      "signature": "0xe33023e944db00210b9bcd79a869ad15ab8b6c9a54f3e61d1484f922e79c6017"
    },
    {
      "constant": false,
      "inputs": [
        {
          "name": "_title",
          "type": "string"
        },
        {
          "name": "_description",
          "type": "string"
        },
        {
          "name": "_creatorFirstName",
          "type": "string"
        },
        {
          "name": "_creatorLastName",
          "type": "string"
        },
        {
          "name": "_creatorEmail",
          "type": "string"
        }
      ],
      "name": "createPetition",
      "outputs": [],
      "payable": false,
      "stateMutability": "nonpayable",
      "type": "function",
      "signature": "0x5f248b1a"
    },
    {
      "constant": false,
      "inputs": [
        {
          "name": "_id",
          "type": "uint256"
        },
        {
          "name": "_firstName",
          "type": "string"
        },
        {
          "name": "_lastName",
          "type": "string"
        },
        {
          "name": "_email",
          "type": "string"
        }
      ],
      "name": "CreateVote",
      "outputs": [],
      "payable": false,
      "stateMutability": "nonpayable",
      "type": "function",
      "signature": "0xb5023cc8"
    }
  ],
  "bytecode": "0x60806040526000805534801561001457600080fd5b50610dcc806100246000396000f3fe6080604052600436106100615763ffffffff7c01000000000000000000000000000000000000000000000000000000006000350416633ad50ded81146100665780635f248b1a1461017c57806361ab1f091461044d578063b5023cc814610474575b600080fd5b34801561007257600080fd5b506100906004803603602081101561008957600080fd5b503561063c565b604051808581526020018481526020018060200180602001838103835285818151815260200191508051906020019080838360005b838110156100dd5781810151838201526020016100c5565b50505050905090810190601f16801561010a5780820380516001836020036101000a031916815260200191505b50838103825284518152845160209182019186019080838360005b8381101561013d578181015183820152602001610125565b50505050905090810190601f16801561016a5780820380516001836020036101000a031916815260200191505b50965050505050505060405180910390f35b34801561018857600080fd5b5061044b600480360360a081101561019f57600080fd5b8101906020810181356401000000008111156101ba57600080fd5b8201836020820111156101cc57600080fd5b803590602001918460018302840111640100000000831117156101ee57600080fd5b91908080601f016020809104026020016040519081016040528093929190818152602001838380828437600092019190915250929594936020810193503591505064010000000081111561024157600080fd5b82018360208201111561025357600080fd5b8035906020019184600183028401116401000000008311171561027557600080fd5b91908080601f01602080910402602001604051908101604052809392919081815260200183838082843760009201919091525092959493602081019350359150506401000000008111156102c857600080fd5b8201836020820111156102da57600080fd5b803590602001918460018302840111640100000000831117156102fc57600080fd5b91908080601f016020809104026020016040519081016040528093929190818152602001838380828437600092019190915250929594936020810193503591505064010000000081111561034f57600080fd5b82018360208201111561036157600080fd5b8035906020019184600183028401116401000000008311171561038357600080fd5b91908080601f01602080910402602001604051908101604052809392919081815260200183838082843760009201919091525092959493602081019350359150506401000000008111156103d657600080fd5b8201836020820111156103e857600080fd5b8035906020019184600183028401116401000000008311171561040a57600080fd5b91908080601f01602080910402602001604051908101604052809392919081815260200183838082843760009201919091525092955061078e945050505050565b005b34801561045957600080fd5b50610462610adb565b60408051918252519081900360200190f35b34801561048057600080fd5b5061044b6004803603608081101561049757600080fd5b813591908101906040810160208201356401000000008111156104b957600080fd5b8201836020820111156104cb57600080fd5b803590602001918460018302840111640100000000831117156104ed57600080fd5b91908080601f016020809104026020016040519081016040528093929190818152602001838380828437600092019190915250929594936020810193503591505064010000000081111561054057600080fd5b82018360208201111561055257600080fd5b8035906020019184600183028401116401000000008311171561057457600080fd5b91908080601f01602080910402602001604051908101604052809392919081815260200183838082843760009201919091525092959493602081019350359150506401000000008111156105c757600080fd5b8201836020820111156105d957600080fd5b803590602001918460018302840111640100000000831117156105fb57600080fd5b91908080601f016020809104026020016040519081016040528093929190818152602001838380828437600092019190915250929550610ae1945050505050565b6001602052806000526040600020600091509050806000015490806001015490806002018054600181600116156101000203166002900480601f0160208091040260200160405190810160405280929190818152602001828054600181600116156101000203166002900480156106f45780601f106106c9576101008083540402835291602001916106f4565b820191906000526020600020905b8154815290600101906020018083116106d757829003601f168201915b5050505060038301805460408051602060026001851615610100026000190190941693909304601f81018490048402820184019092528181529495949350908301828280156107845780601f1061075957610100808354040283529160200191610784565b820191906000526020600020905b81548152906001019060200180831161076757829003601f168201915b5050505050905084565b60008054600190810180835582526020908152604090912086516107ba92600290920191880190610d05565b5060008054815260016020908152604090912085516107e192600390920191870190610d05565b50600080548152600160208181526040808420830183905583548085528185208251608081018452918252818401898152928201889052606082018790526004908101805480870180835591885296859020835197909202909101958655915180519295919491936108599392850192910190610d05565b5060408201518051610875916002840191602090910190610d05565b5060608201518051610891916003840191602090910190610d05565b505050507f492297c097afce05595d715e035fab336852484c58ef49477673ae2a8a3ea14f600054868686868660405180878152602001806020018060200180602001806020018060200186810386528b818151815260200191508051906020019080838360005b838110156109115781810151838201526020016108f9565b50505050905090810190601f16801561093e5780820380516001836020036101000a031916815260200191505b5086810385528a5181528a516020918201918c019080838360005b83811015610971578181015183820152602001610959565b50505050905090810190601f16801561099e5780820380516001836020036101000a031916815260200191505b5086810384528951815289516020918201918b019080838360005b838110156109d15781810151838201526020016109b9565b50505050905090810190601f1680156109fe5780820380516001836020036101000a031916815260200191505b5086810383528851815288516020918201918a019080838360005b83811015610a31578181015183820152602001610a19565b50505050905090810190601f168015610a5e5780820380516001836020036101000a031916815260200191505b50868103825287518152875160209182019189019080838360005b83811015610a91578181015183820152602001610a79565b50505050905090810190601f168015610abe5780820380516001836020036101000a031916815260200191505b509b50505050505050505050505060405180910390a15050505050565b60005481565b60008481526001602081815260408084208084018054850190819055825160808101845290815280840189815292810188905260608101879052600491820180548087018083559188529685902082519790930290920195865591518051919592949293610b5493850192910190610d05565b5060408201518051610b70916002840191602090910190610d05565b5060608201518051610b8c916003840191602090910190610d05565b505050507fe33023e944db00210b9bcd79a869ad15ab8b6c9a54f3e61d1484f922e79c60178484848460405180858152602001806020018060200180602001848103845287818151815260200191508051906020019080838360005b83811015610c00578181015183820152602001610be8565b50505050905090810190601f168015610c2d5780820380516001836020036101000a031916815260200191505b50848103835286518152865160209182019188019080838360005b83811015610c60578181015183820152602001610c48565b50505050905090810190601f168015610c8d5780820380516001836020036101000a031916815260200191505b50848103825285518152855160209182019187019080838360005b83811015610cc0578181015183820152602001610ca8565b50505050905090810190601f168015610ced5780820380516001836020036101000a031916815260200191505b5097505050505050505060405180910390a150505050565b828054600181600116156101000203166002900490600052602060002090601f016020900481019282601f10610d4657805160ff1916838001178555610d73565b82800160010185558215610d73579182015b82811115610d73578251825591602001919060010190610d58565b50610d7f929150610d83565b5090565b610d9d91905b80821115610d7f5760008155600101610d89565b9056fea165627a7a723058207ee576dd55bf0f4b1d9054542488c92abd3b841b43ee341618eeca716302584e0029",
  "source": "pragma solidity >=0.4.21 <0.7.0;\n\ncontract PetitionList {\n  uint public petitionCount = 0;\n  mapping(uint => Petition) public petitions;\n\n  struct Petition {\n    uint id;\n    uint voteCount;\n    string title;\n    string description;\n    Vote[] votes;\n  }\n\n  struct Vote {\n    uint id;\n    string firstName;\n    string lastName;\n    string email;\n  }\n\n  event PetitionCreated(\n    uint id,\n    string title,\n    string description,\n    string creatorFirstName,\n    string creatorLastName,\n    string creatorEmail\n  );\n\n  event VoteCreated(\n    uint id,\n    string firstName,\n    string lastName,\n    string email\n  );\n\n  function createPetition(\n    string memory _title, string memory _description, string memory _creatorFirstName, string memory _creatorLastName, string memory _creatorEmail\n  ) public {\n    petitionCount ++;\n    petitions[petitionCount].title = _title;\n    petitions[petitionCount].description = _description;\n    petitions[petitionCount].voteCount = 1;\n    petitions[petitionCount].votes.push(Vote(petitionCount, _creatorFirstName, _creatorLastName, _creatorEmail));\n    emit PetitionCreated(petitionCount, _title, _description, _creatorFirstName, _creatorLastName, _creatorEmail);\n  }\n\n  function CreateVote(uint _id, string memory _firstName, string memory _lastName, string memory _email) public {\n    petitions[_id].voteCount ++;\n    petitions[_id].votes.push(Vote(petitions[_id].voteCount, _firstName, _lastName, _email));\n    emit VoteCreated(_id, _firstName, _lastName, _email);\n  }\n}",
  "sourcePath": "/Users/dylanskelly/Desktop/block-change/backend/contracts/PetitionList.sol",
  "compiler": {
    "name": "solc",
    "version": "0.5.0+commit.1d4f565a.Emscripten.clang"
  },
  "schemaVersion": "3.0.1",
  "updatedAt": "2020-05-02T23:08:13.936Z",
  "devdoc": {
    "methods": {}
  },
  "userdoc": {
    "methods": {}
  }
}