{
  "contractName": "PetitionList",
  "abi": [
    {
      "constant": true,
      "inputs": [
        {
          "name": "",
          "type": "uint256"
        }
      ],
      "name": "petitions",
      "outputs": [
        {
          "name": "id",
          "type": "uint256"
        },
        {
          "name": "voteCount",
          "type": "uint256"
        },
        {
          "name": "title",
          "type": "string"
        },
        {
          "name": "description",
          "type": "string"
        }
      ],
      "payable": false,
      "stateMutability": "view",
      "type": "function",
      "signature": "0x3ad50ded"
    },
    {
      "constant": true,
      "inputs": [],
      "name": "petitionCount",
      "outputs": [
        {
          "name": "",
          "type": "uint256"
        }
      ],
      "payable": false,
      "stateMutability": "view",
      "type": "function",
      "signature": "0x61ab1f09"
    },
    {
      "inputs": [],
      "payable": false,
      "stateMutability": "nonpayable",
      "type": "constructor",
      "signature": "constructor"
    },
    {
      "anonymous": false,
      "inputs": [
        {
          "indexed": false,
          "name": "id",
          "type": "uint256"
        },
        {
          "indexed": false,
          "name": "title",
          "type": "string"
        },
        {
          "indexed": false,
          "name": "description",
          "type": "string"
        },
        {
          "indexed": false,
          "name": "creatorFirstName",
          "type": "string"
        },
        {
          "indexed": false,
          "name": "creatorLastName",
          "type": "string"
        },
        {
          "indexed": false,
          "name": "creatorEmail",
          "type": "string"
        }
      ],
      "name": "PetitionCreated",
      "type": "event",
      "signature": "0x492297c097afce05595d715e035fab336852484c58ef49477673ae2a8a3ea14f"
    },
    {
      "anonymous": false,
      "inputs": [
        {
          "indexed": false,
          "name": "id",
          "type": "uint256"
        },
        {
          "indexed": false,
          "name": "firstName",
          "type": "string"
        },
        {
          "indexed": false,
          "name": "lastName",
          "type": "string"
        },
        {
          "indexed": false,
          "name": "email",
          "type": "string"
        }
      ],
      "name": "VoteCreated",
      "type": "event",
      "signature": "0xe33023e944db00210b9bcd79a869ad15ab8b6c9a54f3e61d1484f922e79c6017"
    },
    {
      "constant": false,
      "inputs": [
        {
          "name": "_title",
          "type": "string"
        },
        {
          "name": "_description",
          "type": "string"
        },
        {
          "name": "_creatorFirstName",
          "type": "string"
        },
        {
          "name": "_creatorLastName",
          "type": "string"
        },
        {
          "name": "_creatorEmail",
          "type": "string"
        }
      ],
      "name": "createPetition",
      "outputs": [],
      "payable": false,
      "stateMutability": "nonpayable",
      "type": "function",
      "signature": "0x5f248b1a"
    },
    {
      "constant": false,
      "inputs": [
        {
          "name": "_id",
          "type": "uint256"
        },
        {
          "name": "_firstName",
          "type": "string"
        },
        {
          "name": "_lastName",
          "type": "string"
        },
        {
          "name": "_email",
          "type": "string"
        }
      ],
      "name": "CreateVote",
      "outputs": [],
      "payable": false,
      "stateMutability": "nonpayable",
      "type": "function",
      "signature": "0xb5023cc8"
    }
  ],
  "bytecode": "0x6080604052600080553480156200001557600080fd5b50604080518082018252600e81527f4669727374205065746974696f6e0000000000000000000000000000000000006020808301919091528251606081018452602c81527f546869732069732061206465736372697074696f6e20666f7220746865206669818301527f727374207065746974696f6e00000000000000000000000000000000000000008185015283518085018552600581527f44796c616e0000000000000000000000000000000000000000000000000000008184015284518086018652600681527f536b656c6c790000000000000000000000000000000000000000000000000000818501528551808701909652601586527f64796c616e736b656c6c7940676d61696c2e636f6d0000000000000000000000938601939093526200014f949192909164010000000062000155810204565b62000563565b60008054815260016020908152604090912086516200017d92600290920191880190620004be565b506000805481526001602090815260409091208551620001a692600390920191870190620004be565b5060008054815260016020818152604080842083018390558354808552818520825160808101845291825281840189815292820188905260608201879052600490810180548087018083559188529685902083519790920290910195865591518051929591949193620002209392850192910190620004be565b50604082015180516200023e916002840191602090910190620004be565b50606082015180516200025c916003840191602090910190620004be565b505050507f492297c097afce05595d715e035fab336852484c58ef49477673ae2a8a3ea14f600054868686868660405180878152602001806020018060200180602001806020018060200186810386528b818151815260200191508051906020019080838360005b83811015620002de578181015183820152602001620002c4565b50505050905090810190601f1680156200030c5780820380516001836020036101000a031916815260200191505b5086810385528a5181528a516020918201918c019080838360005b838110156200034157818101518382015260200162000327565b50505050905090810190601f1680156200036f5780820380516001836020036101000a031916815260200191505b5086810384528951815289516020918201918b019080838360005b83811015620003a45781810151838201526020016200038a565b50505050905090810190601f168015620003d25780820380516001836020036101000a031916815260200191505b5086810383528851815288516020918201918a019080838360005b8381101562000407578181015183820152602001620003ed565b50505050905090810190601f168015620004355780820380516001836020036101000a031916815260200191505b50868103825287518152875160209182019189019080838360005b838110156200046a57818101518382015260200162000450565b50505050905090810190601f168015620004985780820380516001836020036101000a031916815260200191505b509b50505050505050505050505060405180910390a15050600080546001019055505050565b828054600181600116156101000203166002900490600052602060002090601f016020900481019282601f106200050157805160ff191683800117855562000531565b8280016001018555821562000531579182015b828111156200053157825182559160200191906001019062000514565b506200053f92915062000543565b5090565b6200056091905b808211156200053f57600081556001016200054a565b90565b610dd080620005736000396000f3fe6080604052600436106100615763ffffffff7c01000000000000000000000000000000000000000000000000000000006000350416633ad50ded81146100665780635f248b1a1461017c57806361ab1f091461044d578063b5023cc814610474575b600080fd5b34801561007257600080fd5b506100906004803603602081101561008957600080fd5b503561063c565b604051808581526020018481526020018060200180602001838103835285818151815260200191508051906020019080838360005b838110156100dd5781810151838201526020016100c5565b50505050905090810190601f16801561010a5780820380516001836020036101000a031916815260200191505b50838103825284518152845160209182019186019080838360005b8381101561013d578181015183820152602001610125565b50505050905090810190601f16801561016a5780820380516001836020036101000a031916815260200191505b50965050505050505060405180910390f35b34801561018857600080fd5b5061044b600480360360a081101561019f57600080fd5b8101906020810181356401000000008111156101ba57600080fd5b8201836020820111156101cc57600080fd5b803590602001918460018302840111640100000000831117156101ee57600080fd5b91908080601f016020809104026020016040519081016040528093929190818152602001838380828437600092019190915250929594936020810193503591505064010000000081111561024157600080fd5b82018360208201111561025357600080fd5b8035906020019184600183028401116401000000008311171561027557600080fd5b91908080601f01602080910402602001604051908101604052809392919081815260200183838082843760009201919091525092959493602081019350359150506401000000008111156102c857600080fd5b8201836020820111156102da57600080fd5b803590602001918460018302840111640100000000831117156102fc57600080fd5b91908080601f016020809104026020016040519081016040528093929190818152602001838380828437600092019190915250929594936020810193503591505064010000000081111561034f57600080fd5b82018360208201111561036157600080fd5b8035906020019184600183028401116401000000008311171561038357600080fd5b91908080601f01602080910402602001604051908101604052809392919081815260200183838082843760009201919091525092959493602081019350359150506401000000008111156103d657600080fd5b8201836020820111156103e857600080fd5b8035906020019184600183028401116401000000008311171561040a57600080fd5b91908080601f01602080910402602001604051908101604052809392919081815260200183838082843760009201919091525092955061078e945050505050565b005b34801561045957600080fd5b50610462610ade565b60408051918252519081900360200190f35b34801561048057600080fd5b5061044b6004803603608081101561049757600080fd5b813591908101906040810160208201356401000000008111156104b957600080fd5b8201836020820111156104cb57600080fd5b803590602001918460018302840111640100000000831117156104ed57600080fd5b91908080601f016020809104026020016040519081016040528093929190818152602001838380828437600092019190915250929594936020810193503591505064010000000081111561054057600080fd5b82018360208201111561055257600080fd5b8035906020019184600183028401116401000000008311171561057457600080fd5b91908080601f01602080910402602001604051908101604052809392919081815260200183838082843760009201919091525092959493602081019350359150506401000000008111156105c757600080fd5b8201836020820111156105d957600080fd5b803590602001918460018302840111640100000000831117156105fb57600080fd5b91908080601f016020809104026020016040519081016040528093929190818152602001838380828437600092019190915250929550610ae4945050505050565b6001602052806000526040600020600091509050806000015490806001015490806002018054600181600116156101000203166002900480601f0160208091040260200160405190810160405280929190818152602001828054600181600116156101000203166002900480156106f45780601f106106c9576101008083540402835291602001916106f4565b820191906000526020600020905b8154815290600101906020018083116106d757829003601f168201915b5050505060038301805460408051602060026001851615610100026000190190941693909304601f81018490048402820184019092528181529495949350908301828280156107845780601f1061075957610100808354040283529160200191610784565b820191906000526020600020905b81548152906001019060200180831161076757829003601f168201915b5050505050905084565b60008054815260016020908152604090912086516107b492600290920191880190610d09565b5060008054815260016020908152604090912085516107db92600390920191870190610d09565b50600080548152600160208181526040808420830183905583548085528185208251608081018452918252818401898152928201889052606082018790526004908101805480870180835591885296859020835197909202909101958655915180519295919491936108539392850192910190610d09565b506040820151805161086f916002840191602090910190610d09565b506060820151805161088b916003840191602090910190610d09565b505050507f492297c097afce05595d715e035fab336852484c58ef49477673ae2a8a3ea14f600054868686868660405180878152602001806020018060200180602001806020018060200186810386528b818151815260200191508051906020019080838360005b8381101561090b5781810151838201526020016108f3565b50505050905090810190601f1680156109385780820380516001836020036101000a031916815260200191505b5086810385528a5181528a516020918201918c019080838360005b8381101561096b578181015183820152602001610953565b50505050905090810190601f1680156109985780820380516001836020036101000a031916815260200191505b5086810384528951815289516020918201918b019080838360005b838110156109cb5781810151838201526020016109b3565b50505050905090810190601f1680156109f85780820380516001836020036101000a031916815260200191505b5086810383528851815288516020918201918a019080838360005b83811015610a2b578181015183820152602001610a13565b50505050905090810190601f168015610a585780820380516001836020036101000a031916815260200191505b50868103825287518152875160209182019189019080838360005b83811015610a8b578181015183820152602001610a73565b50505050905090810190601f168015610ab85780820380516001836020036101000a031916815260200191505b509b50505050505050505050505060405180910390a15050600080546001019055505050565b60005481565b6000848152600160208181526040808420815160808101835281850154815280840189815292810188905260608101879052600491820180548087018083559188529685902082519790930290920195865591518051919592949293610b4f93850192910190610d09565b5060408201518051610b6b916002840191602090910190610d09565b5060608201518051610b87916003840191602090910190610d09565b505050507fe33023e944db00210b9bcd79a869ad15ab8b6c9a54f3e61d1484f922e79c60178484848460405180858152602001806020018060200180602001848103845287818151815260200191508051906020019080838360005b83811015610bfb578181015183820152602001610be3565b50505050905090810190601f168015610c285780820380516001836020036101000a031916815260200191505b50848103835286518152865160209182019188019080838360005b83811015610c5b578181015183820152602001610c43565b50505050905090810190601f168015610c885780820380516001836020036101000a031916815260200191505b50848103825285518152855160209182019187019080838360005b83811015610cbb578181015183820152602001610ca3565b50505050905090810190601f168015610ce85780820380516001836020036101000a031916815260200191505b5097505050505050505060405180910390a150506000805460010190555050565b828054600181600116156101000203166002900490600052602060002090601f016020900481019282601f10610d4a57805160ff1916838001178555610d77565b82800160010185558215610d77579182015b82811115610d77578251825591602001919060010190610d5c565b50610d83929150610d87565b5090565b610da191905b80821115610d835760008155600101610d8d565b9056fea165627a7a7230582083f372d95a4a28a5d940106f6e537cae1c5a47f7ba48ca84de45a079a4b170cc0029",
  "source": "pragma solidity >=0.4.21 <0.7.0;\n\ncontract PetitionList {\n  uint public petitionCount = 0;\n\n  struct Petition {\n    uint id;\n    uint voteCount;\n    string title;\n    string description;\n    Vote[] votes;\n  }\n\n  mapping(uint => Petition) public petitions;\n\n  struct Vote {\n    uint id;\n    string firstName;\n    string lastName;\n    string email;\n  }\n\n  event PetitionCreated(\n    uint id,\n    string title,\n    string description,\n    string creatorFirstName,\n    string creatorLastName,\n    string creatorEmail\n  );\n\n  event VoteCreated(\n    uint id,\n    string firstName,\n    string lastName,\n    string email\n  );\n\n  constructor() public {\n    createPetition(\"First Petition\", \"This is a description for the first petition\", \"Dylan\", \"Skelly\", \"dylanskelly@gmail.com\");\n  }\n\n  function createPetition(\n    string memory _title, string memory _description, string memory _creatorFirstName, string memory _creatorLastName, string memory _creatorEmail\n  ) public {\n    petitions[petitionCount].title = _title;\n    petitions[petitionCount].description = _description;\n    petitions[petitionCount].voteCount = 1;\n    petitions[petitionCount].votes.push(Vote(petitionCount, _creatorFirstName, _creatorLastName, _creatorEmail));\n    emit PetitionCreated(petitionCount, _title, _description, _creatorFirstName, _creatorLastName, _creatorEmail);\n    petitionCount ++;\n  }\n\n  function CreateVote(uint _id, string memory _firstName, string memory _lastName, string memory _email) public {\n    petitions[_id].votes.push(Vote(petitions[_id].voteCount, _firstName, _lastName, _email));\n    emit VoteCreated(_id, _firstName, _lastName, _email);\n    petitionCount ++;\n  }\n}",
  "sourcePath": "/Users/dylanskelly/Desktop/block-change/backend/contracts/PetitionList.sol",
  "compiler": {
    "name": "solc",
    "version": "0.5.0+commit.1d4f565a.Emscripten.clang"
  },
  "schemaVersion": "3.0.1",
  "updatedAt": "2020-05-03T00:40:30.481Z",
  "devdoc": {
    "methods": {}
  },
  "userdoc": {
    "methods": {}
  }
}