{
  "contractName": "PetitionList",
  "abi": [
    {
      "constant": true,
      "inputs": [
        {
          "name": "",
          "type": "uint256"
        }
      ],
      "name": "petitions",
      "outputs": [
        {
          "name": "id",
          "type": "uint256"
        },
        {
          "name": "voteCount",
          "type": "uint256"
        },
        {
          "name": "title",
          "type": "string"
        },
        {
          "name": "description",
          "type": "string"
        },
        {
          "name": "recipient",
          "type": "string"
        },
        {
          "name": "category",
          "type": "string"
        }
      ],
      "payable": false,
      "stateMutability": "view",
      "type": "function",
      "signature": "0x3ad50ded"
    },
    {
      "constant": true,
      "inputs": [],
      "name": "petitionCount",
      "outputs": [
        {
          "name": "",
          "type": "uint256"
        }
      ],
      "payable": false,
      "stateMutability": "view",
      "type": "function",
      "signature": "0x61ab1f09"
    },
    {
      "inputs": [],
      "payable": false,
      "stateMutability": "nonpayable",
      "type": "constructor",
      "signature": "constructor"
    },
    {
      "anonymous": false,
      "inputs": [
        {
          "indexed": false,
          "name": "id",
          "type": "uint256"
        },
        {
          "indexed": false,
          "name": "title",
          "type": "string"
        },
        {
          "indexed": false,
          "name": "description",
          "type": "string"
        },
        {
          "indexed": false,
          "name": "creatorFirstName",
          "type": "string"
        },
        {
          "indexed": false,
          "name": "creatorLastName",
          "type": "string"
        },
        {
          "indexed": false,
          "name": "creatorEmail",
          "type": "string"
        }
      ],
      "name": "PetitionCreated",
      "type": "event",
      "signature": "0x492297c097afce05595d715e035fab336852484c58ef49477673ae2a8a3ea14f"
    },
    {
      "anonymous": false,
      "inputs": [
        {
          "indexed": false,
          "name": "id",
          "type": "uint256"
        },
        {
          "indexed": false,
          "name": "firstName",
          "type": "string"
        },
        {
          "indexed": false,
          "name": "lastName",
          "type": "string"
        },
        {
          "indexed": false,
          "name": "email",
          "type": "string"
        }
      ],
      "name": "VoteCreated",
      "type": "event",
      "signature": "0xe33023e944db00210b9bcd79a869ad15ab8b6c9a54f3e61d1484f922e79c6017"
    },
    {
      "constant": false,
      "inputs": [
        {
          "name": "_title",
          "type": "string"
        },
        {
          "name": "_description",
          "type": "string"
        },
        {
          "name": "_creatorFirstName",
          "type": "string"
        },
        {
          "name": "_creatorLastName",
          "type": "string"
        },
        {
          "name": "_creatorEmail",
          "type": "string"
        },
        {
          "name": "_category",
          "type": "string"
        },
        {
          "name": "_recipient",
          "type": "string"
        }
      ],
      "name": "createPetition",
      "outputs": [],
      "payable": false,
      "stateMutability": "nonpayable",
      "type": "function",
      "signature": "0xb83fce58"
    },
    {
      "constant": false,
      "inputs": [
        {
          "name": "_id",
          "type": "uint256"
        },
        {
          "name": "_firstName",
          "type": "string"
        },
        {
          "name": "_lastName",
          "type": "string"
        },
        {
          "name": "_email",
          "type": "string"
        }
      ],
      "name": "createVote",
      "outputs": [],
      "payable": false,
      "stateMutability": "nonpayable",
      "type": "function",
      "signature": "0xc576e11b"
    }
  ],
  "bytecode": "0x6080604052600080553480156200001557600080fd5b50604080518082018252600e81527f4669727374205065746974696f6e0000000000000000000000000000000000006020808301919091528251606081018452602c81527f546869732069732061206465736372697074696f6e20666f7220746865206669818301527f727374207065746974696f6e00000000000000000000000000000000000000008185015283518085018552600581527f44796c616e000000000000000000000000000000000000000000000000000000818401528451808601865260068082527f536b656c6c7900000000000000000000000000000000000000000000000000008286015286518088018852601581527f64796c616e736b656c6c7940676d61696c2e636f6d000000000000000000000081870152875180890189529182527f4865616c74680000000000000000000000000000000000000000000000000000828701528751808901909852601e88527f507265736964656e74206f662074686520556e6974656420537461746573000095880195909552620001b2969394929391929164010000000062000412810204565b604080518082018252600f81527f5365636f6e64205065746974696f6e00000000000000000000000000000000006020808301919091528251606081018452602d81527f546869732069732061206465736372697074696f6e20666f7220746865207365818301527f636f6e64207065746974696f6e000000000000000000000000000000000000008185015283518085018552600c81527f5365636f6e642044796c616e00000000000000000000000000000000000000008184015284518086018652600d81527f5365636f6e6420536b656c6c79000000000000000000000000000000000000008185015285518087018752601c81527f616e6f7468657264796c616e736b656c6c7940676d61696c2e636f6d000000008186015286518088018852600681527f4865616c74680000000000000000000000000000000000000000000000000000818701528751808901909852601e88527f507265736964656e74206f662074686520556e69746564205374617465730000958801959095526200034f96939492939192909164010000000062000412810204565b6200040c60006040805190810160405280600781526020017f416e6f74686572000000000000000000000000000000000000000000000000008152506040805190810160405280600581526020017f44796c616e0000000000000000000000000000000000000000000000000000008152506040805190810160405280601681526020017f616e6f7468657264796c616e40676d61696c2e636f6d00000000000000000000815250620007e7640100000000026401000000009004565b62000add565b6000805480825260016020908152604090922090815588516200043e926002909201918a019062000a38565b506000805481526001602090815260409091208751620004679260039092019189019062000a38565b506000805481526001602090815260409091208351620004909260059092019185019062000a38565b506000805481526001602090815260409091208251620004b99260049092019184019062000a38565b506000805480825260016020818152604080852081516080810183529485528483018b81529185018a90526060850189905260060180548085018083559187529583902085516004909702019586559051805191959362000521939085019291019062000a38565b50604082015180516200053f91600284019160209091019062000a38565b50606082015180516200055d91600384019160209091019062000a38565b505060008054815260016020818152604080842060068101549301929092558254825181815260c08184018181528f51918301919091528e517f492297c097afce05595d715e035fab336852484c58ef49477673ae2a8a3ea14f98509296508e958e958e958e958e959493928501926060860192608087019260a088019260e08901928e0191908190849084905b8381101562000605578181015183820152602001620005eb565b50505050905090810190601f168015620006335780820380516001836020036101000a031916815260200191505b5086810385528a5181528a516020918201918c019080838360005b83811015620006685781810151838201526020016200064e565b50505050905090810190601f168015620006965780820380516001836020036101000a031916815260200191505b5086810384528951815289516020918201918b019080838360005b83811015620006cb578181015183820152602001620006b1565b50505050905090810190601f168015620006f95780820380516001836020036101000a031916815260200191505b5086810383528851815288516020918201918a019080838360005b838110156200072e57818101518382015260200162000714565b50505050905090810190601f1680156200075c5780820380516001836020036101000a031916815260200191505b50868103825287518152875160209182019189019080838360005b838110156200079157818101518382015260200162000777565b50505050905090810190601f168015620007bf5780820380516001836020036101000a031916815260200191505b509b50505050505050505050505060405180910390a150506000805460010190555050505050565b6000848152600160208181526040808420815160808101835281850154815280840189815292810188905260608101879052600690910180548086018083559187529584902082516004909702019586559151805192959194919362000854939285019291019062000a38565b50604082015180516200087291600284019160209091019062000a38565b50606082015180516200089091600384019160209091019062000a38565b5050505060016000858152602001908152602001600020600101600081548092919060010191905055507fe33023e944db00210b9bcd79a869ad15ab8b6c9a54f3e61d1484f922e79c60178484848460405180858152602001806020018060200180602001848103845287818151815260200191508051906020019080838360005b838110156200092c57818101518382015260200162000912565b50505050905090810190601f1680156200095a5780820380516001836020036101000a031916815260200191505b50848103835286518152865160209182019188019080838360005b838110156200098f57818101518382015260200162000975565b50505050905090810190601f168015620009bd5780820380516001836020036101000a031916815260200191505b50848103825285518152855160209182019187019080838360005b83811015620009f2578181015183820152602001620009d8565b50505050905090810190601f16801562000a205780820380516001836020036101000a031916815260200191505b5097505050505050505060405180910390a150505050565b828054600181600116156101000203166002900490600052602060002090601f016020900481019282601f1062000a7b57805160ff191683800117855562000aab565b8280016001018555821562000aab579182015b8281111562000aab57825182559160200191906001019062000a8e565b5062000ab992915062000abd565b5090565b62000ada91905b8082111562000ab9576000815560010162000ac4565b90565b61114f8062000aed6000396000f3fe6080604052600436106100615763ffffffff7c01000000000000000000000000000000000000000000000000000000006000350416633ad50ded811461006657806361ab1f0914610248578063b83fce581461026f578063c576e11b1461064e575b600080fd5b34801561007257600080fd5b506100906004803603602081101561008957600080fd5b5035610816565b6040518087815260200186815260200180602001806020018060200180602001858103855289818151815260200191508051906020019080838360005b838110156100e55781810151838201526020016100cd565b50505050905090810190601f1680156101125780820380516001836020036101000a031916815260200191505b5085810384528851815288516020918201918a019080838360005b8381101561014557818101518382015260200161012d565b50505050905090810190601f1680156101725780820380516001836020036101000a031916815260200191505b50858103835287518152875160209182019189019080838360005b838110156101a557818101518382015260200161018d565b50505050905090810190601f1680156101d25780820380516001836020036101000a031916815260200191505b50858103825286518152865160209182019188019080838360005b838110156102055781810151838201526020016101ed565b50505050905090810190601f1680156102325780820380516001836020036101000a031916815260200191505b509a505050505050505050505060405180910390f35b34801561025457600080fd5b5061025d610a88565b60408051918252519081900360200190f35b34801561027b57600080fd5b5061064c600480360360e081101561029257600080fd5b8101906020810181356401000000008111156102ad57600080fd5b8201836020820111156102bf57600080fd5b803590602001918460018302840111640100000000831117156102e157600080fd5b91908080601f016020809104026020016040519081016040528093929190818152602001838380828437600092019190915250929594936020810193503591505064010000000081111561033457600080fd5b82018360208201111561034657600080fd5b8035906020019184600183028401116401000000008311171561036857600080fd5b91908080601f01602080910402602001604051908101604052809392919081815260200183838082843760009201919091525092959493602081019350359150506401000000008111156103bb57600080fd5b8201836020820111156103cd57600080fd5b803590602001918460018302840111640100000000831117156103ef57600080fd5b91908080601f016020809104026020016040519081016040528093929190818152602001838380828437600092019190915250929594936020810193503591505064010000000081111561044257600080fd5b82018360208201111561045457600080fd5b8035906020019184600183028401116401000000008311171561047657600080fd5b91908080601f01602080910402602001604051908101604052809392919081815260200183838082843760009201919091525092959493602081019350359150506401000000008111156104c957600080fd5b8201836020820111156104db57600080fd5b803590602001918460018302840111640100000000831117156104fd57600080fd5b91908080601f016020809104026020016040519081016040528093929190818152602001838380828437600092019190915250929594936020810193503591505064010000000081111561055057600080fd5b82018360208201111561056257600080fd5b8035906020019184600183028401116401000000008311171561058457600080fd5b91908080601f01602080910402602001604051908101604052809392919081815260200183838082843760009201919091525092959493602081019350359150506401000000008111156105d757600080fd5b8201836020820111156105e957600080fd5b8035906020019184600183028401116401000000008311171561060b57600080fd5b91908080601f016020809104026020016040519081016040528093929190818152602001838380828437600092019190915250929550610a8e945050505050565b005b34801561065a57600080fd5b5061064c6004803603608081101561067157600080fd5b8135919081019060408101602082013564010000000081111561069357600080fd5b8201836020820111156106a557600080fd5b803590602001918460018302840111640100000000831117156106c757600080fd5b91908080601f016020809104026020016040519081016040528093929190818152602001838380828437600092019190915250929594936020810193503591505064010000000081111561071a57600080fd5b82018360208201111561072c57600080fd5b8035906020019184600183028401116401000000008311171561074e57600080fd5b91908080601f01602080910402602001604051908101604052809392919081815260200183838082843760009201919091525092959493602081019350359150506401000000008111156107a157600080fd5b8201836020820111156107b357600080fd5b803590602001918460018302840111640100000000831117156107d557600080fd5b91908080601f016020809104026020016040519081016040528093929190818152602001838380828437600092019190915250929550610e46945050505050565b6001602052806000526040600020600091509050806000015490806001015490806002018054600181600116156101000203166002900480601f0160208091040260200160405190810160405280929190818152602001828054600181600116156101000203166002900480156108ce5780601f106108a3576101008083540402835291602001916108ce565b820191906000526020600020905b8154815290600101906020018083116108b157829003601f168201915b5050505060038301805460408051602060026001851615610100026000190190941693909304601f810184900484028201840190925281815294959493509083018282801561095e5780601f106109335761010080835404028352916020019161095e565b820191906000526020600020905b81548152906001019060200180831161094157829003601f168201915b5050505060048301805460408051602060026001851615610100026000190190941693909304601f81018490048402820184019092528181529495949350908301828280156109ee5780601f106109c3576101008083540402835291602001916109ee565b820191906000526020600020905b8154815290600101906020018083116109d157829003601f168201915b5050505060058301805460408051602060026001851615610100026000190190941693909304601f8101849004840282018401909252818152949594935090830182828015610a7e5780601f10610a5357610100808354040283529160200191610a7e565b820191906000526020600020905b815481529060010190602001808311610a6157829003601f168201915b5050505050905086565b60005481565b600080548082526001602090815260409092209081558851610ab8926002909201918a0190611088565b506000805481526001602090815260409091208751610adf92600390920191890190611088565b506000805481526001602090815260409091208351610b0692600590920191850190611088565b506000805481526001602090815260409091208251610b2d92600490920191840190611088565b506000805480825260016020818152604080852081516080810183529485528483018b81529185018a905260608501899052600601805480850180835591875295839020855160049097020195865590518051919593610b939390850192910190611088565b5060408201518051610baf916002840191602090910190611088565b5060608201518051610bcb916003840191602090910190611088565b505060008054815260016020818152604080842060068101549301929092558254825181815260c08184018181528f51918301919091528e517f492297c097afce05595d715e035fab336852484c58ef49477673ae2a8a3ea14f98509296508e958e958e958e958e959493928501926060860192608087019260a088019260e08901928e0191908190849084905b83811015610c71578181015183820152602001610c59565b50505050905090810190601f168015610c9e5780820380516001836020036101000a031916815260200191505b5086810385528a5181528a516020918201918c019080838360005b83811015610cd1578181015183820152602001610cb9565b50505050905090810190601f168015610cfe5780820380516001836020036101000a031916815260200191505b5086810384528951815289516020918201918b019080838360005b83811015610d31578181015183820152602001610d19565b50505050905090810190601f168015610d5e5780820380516001836020036101000a031916815260200191505b5086810383528851815288516020918201918a019080838360005b83811015610d91578181015183820152602001610d79565b50505050905090810190601f168015610dbe5780820380516001836020036101000a031916815260200191505b50868103825287518152875160209182019189019080838360005b83811015610df1578181015183820152602001610dd9565b50505050905090810190601f168015610e1e5780820380516001836020036101000a031916815260200191505b509b50505050505050505050505060405180910390a150506000805460010190555050505050565b60008481526001602081815260408084208151608081018352818501548152808401898152928101889052606081018790526006909101805480860180835591875295849020825160049097020195865591518051929591949193610eb19392850192910190611088565b5060408201518051610ecd916002840191602090910190611088565b5060608201518051610ee9916003840191602090910190611088565b5050505060016000858152602001908152602001600020600101600081548092919060010191905055507fe33023e944db00210b9bcd79a869ad15ab8b6c9a54f3e61d1484f922e79c60178484848460405180858152602001806020018060200180602001848103845287818151815260200191508051906020019080838360005b83811015610f83578181015183820152602001610f6b565b50505050905090810190601f168015610fb05780820380516001836020036101000a031916815260200191505b50848103835286518152865160209182019188019080838360005b83811015610fe3578181015183820152602001610fcb565b50505050905090810190601f1680156110105780820380516001836020036101000a031916815260200191505b50848103825285518152855160209182019187019080838360005b8381101561104357818101518382015260200161102b565b50505050905090810190601f1680156110705780820380516001836020036101000a031916815260200191505b5097505050505050505060405180910390a150505050565b828054600181600116156101000203166002900490600052602060002090601f016020900481019282601f106110c957805160ff19168380011785556110f6565b828001600101855582156110f6579182015b828111156110f65782518255916020019190600101906110db565b50611102929150611106565b5090565b61112091905b80821115611102576000815560010161110c565b9056fea165627a7a7230582035e128b7d17b1de7d61cf27d9777fdaf5e800c8a204363efe2033d1e5114abe60029",
  "source": "pragma solidity >=0.4.21 <0.7.0;\n\ncontract PetitionList {\n  uint public petitionCount = 0;\n\n  struct Petition {\n    uint id;\n    uint voteCount;\n    string title;\n    string description;\n    string recipient;\n    string category;\n    Vote[] votes;\n  }\n\n  mapping(uint => Petition) public petitions;\n\n  struct Vote {\n    uint id;\n    string firstName;\n    string lastName;\n    string email;\n  }\n\n  event PetitionCreated(\n    uint id,\n    string title,\n    string description,\n    string creatorFirstName,\n    string creatorLastName,\n    string creatorEmail\n  );\n\n  event VoteCreated(\n    uint id,\n    string firstName,\n    string lastName,\n    string email\n  );\n\n  constructor() public {\n    createPetition(\n      \"First Petition\",\n      \"This is a description for the first petition\",\n      \"Dylan\",\n      \"Skelly\",\n      \"dylanskelly@gmail.com\",\n      \"Health\",\n      \"President of the United States\"\n    );\n    createPetition(\n      \"Second Petition\",\n      \"This is a description for the second petition\",\n      \"Second Dylan\",\n      \"Second Skelly\",\n      \"anotherdylanskelly@gmail.com\",\n      \"Health\",\n      \"President of the United States\"\n    );\n    createVote(\n      0,\n      \"Another\",\n      \"Dylan\",\n      \"anotherdylan@gmail.com\"\n    );\n  }\n\n  function createPetition(\n    string memory _title, string memory _description, string memory _creatorFirstName, string memory _creatorLastName, string memory _creatorEmail, string memory _category, string memory _recipient\n  ) public {\n    petitions[petitionCount].id = petitionCount;\n    petitions[petitionCount].title = _title;\n    petitions[petitionCount].description = _description;\n    petitions[petitionCount].category = _category;\n    petitions[petitionCount].recipient = _recipient;\n    petitions[petitionCount].votes.push(Vote(petitionCount, _creatorFirstName, _creatorLastName, _creatorEmail));\n    petitions[petitionCount].voteCount = petitions[petitionCount].votes.length;\n    emit PetitionCreated(petitionCount, _title, _description, _creatorFirstName, _creatorLastName, _creatorEmail);\n    petitionCount ++;\n  }\n\n  function createVote(uint _id, string memory _firstName, string memory _lastName, string memory _email) public {\n    petitions[_id].votes.push(Vote(petitions[_id].voteCount, _firstName, _lastName, _email));\n    petitions[_id].voteCount ++;\n    emit VoteCreated(_id, _firstName, _lastName, _email);\n  }\n}",
  "sourcePath": "/Users/dylanskelly/Desktop/block-change/backend/contracts/PetitionList.sol",
  "compiler": {
    "name": "solc",
    "version": "0.5.0+commit.1d4f565a.Emscripten.clang"
  },
  "schemaVersion": "3.0.1",
  "updatedAt": "2020-05-03T05:45:49.000Z",
  "devdoc": {
    "methods": {}
  },
  "userdoc": {
    "methods": {}
  }
}